{
  "contractName": "Factory",
  "abi": [
    {
      "inputs": [],
      "name": "activeDriver",
      "outputs": [
        {
          "internalType": "address payable",
          "name": "driver",
          "type": "address"
        },
        {
          "internalType": "string",
          "name": "lat",
          "type": "string"
        },
        {
          "internalType": "string",
          "name": "lon",
          "type": "string"
        }
      ],
      "stateMutability": "view",
      "type": "function",
      "constant": true
    },
    {
      "inputs": [
        {
          "internalType": "address",
          "name": "",
          "type": "address"
        }
      ],
      "name": "activeRides",
      "outputs": [
        {
          "internalType": "bool",
          "name": "",
          "type": "bool"
        }
      ],
      "stateMutability": "view",
      "type": "function",
      "constant": true
    },
    {
      "inputs": [],
      "name": "newRide",
      "outputs": [
        {
          "internalType": "contract Ride",
          "name": "",
          "type": "address"
        }
      ],
      "stateMutability": "view",
      "type": "function",
      "constant": true
    },
    {
      "inputs": [],
      "name": "rideAddress",
      "outputs": [
        {
          "internalType": "address",
          "name": "",
          "type": "address"
        }
      ],
      "stateMutability": "view",
      "type": "function",
      "constant": true
    },
    {
      "inputs": [
        {
          "internalType": "uint256",
          "name": "_amt",
          "type": "uint256"
        },
        {
          "internalType": "string",
          "name": "_latDest",
          "type": "string"
        },
        {
          "internalType": "string",
          "name": "_lonDest",
          "type": "string"
        },
        {
          "internalType": "string",
          "name": "_latPick",
          "type": "string"
        },
        {
          "internalType": "string",
          "name": "_lonPick",
          "type": "string"
        }
      ],
      "name": "createRide",
      "outputs": [
        {
          "internalType": "address",
          "name": "",
          "type": "address"
        }
      ],
      "stateMutability": "nonpayable",
      "type": "function"
    },
    {
      "inputs": [],
      "name": "factoryAddress",
      "outputs": [
        {
          "internalType": "address",
          "name": "",
          "type": "address"
        }
      ],
      "stateMutability": "view",
      "type": "function",
      "constant": true
    },
    {
      "inputs": [
        {
          "internalType": "string",
          "name": "_lat",
          "type": "string"
        },
        {
          "internalType": "string",
          "name": "_lon",
          "type": "string"
        }
      ],
      "name": "createDriver",
      "outputs": [],
      "stateMutability": "nonpayable",
      "type": "function"
    }
  ],
  "bytecode": "0x608060405234801561001057600080fd5b50611a16806100206000396000f3fe60806040523480156200001157600080fd5b5060043610620000885760003560e01c80639161cae111620000635780639161cae11462000109578063966dae0e1462000129578063b9a13383146200014b578063dd805a3314620001815762000088565b806355fe2338146200008d578063589c209d14620000af5780637c476dc414620000e5575b600080fd5b62000097620001a3565b604051620000a6919062000680565b60405180910390f35b620000cd6004803603810190620000c79190620006e2565b620001c9565b604051620000dc919062000731565b60405180910390f35b620000ef620001e9565b604051620001009392919062000817565b60405180910390f35b620001276004803603810190620001219190620009b3565b62000341565b005b62000133620003c0565b60405162000142919062000680565b60405180910390f35b62000169600480360381019062000163919062000a73565b620003c8565b60405162000178919062000680565b60405180910390f35b6200018b62000557565b6040516200019a919062000be2565b60405180910390f35b600560009054906101000a900473ffffffffffffffffffffffffffffffffffffffff1681565b60006020528060005260406000206000915054906101000a900460ff1681565b60028060000160009054906101000a900473ffffffffffffffffffffffffffffffffffffffff1690806001018054620002229062000c2e565b80601f0160208091040260200160405190810160405280929190818152602001828054620002509062000c2e565b8015620002a15780601f106200027557610100808354040283529160200191620002a1565b820191906000526020600020905b8154815290600101906020018083116200028357829003601f168201915b505050505090806002018054620002b89062000c2e565b80601f0160208091040260200160405190810160405280929190818152602001828054620002e69062000c2e565b8015620003375780601f106200030b5761010080835404028352916020019162000337565b820191906000526020600020905b8154815290600101906020018083116200031957829003601f168201915b5050505050905083565b81600260010190805190602001906200035c9291906200057d565b5080600280019080519060200190620003779291906200057d565b5033600260000160006101000a81548173ffffffffffffffffffffffffffffffffffffffff021916908373ffffffffffffffffffffffffffffffffffffffff1602179055505050565b600030905090565b6000338686868686604051620003de906200060e565b620003ef9695949392919062000c75565b604051809103906000f0801580156200040c573d6000803e3d6000fd5b50600160006101000a81548173ffffffffffffffffffffffffffffffffffffffff021916908373ffffffffffffffffffffffffffffffffffffffff1602179055506001600080600160009054906101000a900473ffffffffffffffffffffffffffffffffffffffff1673ffffffffffffffffffffffffffffffffffffffff1673ffffffffffffffffffffffffffffffffffffffff16815260200190815260200160002060006101000a81548160ff021916908315150217905550600160009054906101000a900473ffffffffffffffffffffffffffffffffffffffff16600560006101000a81548173ffffffffffffffffffffffffffffffffffffffff021916908373ffffffffffffffffffffffffffffffffffffffff160217905550600160009054906101000a900473ffffffffffffffffffffffffffffffffffffffff16905095945050505050565b600160009054906101000a900473ffffffffffffffffffffffffffffffffffffffff1681565b8280546200058b9062000c2e565b90600052602060002090601f016020900481019282620005af5760008555620005fb565b82601f10620005ca57805160ff1916838001178555620005fb565b82800160010185558215620005fb579182015b82811115620005fa578251825591602001919060010190620005dd565b5b5090506200060a91906200061c565b5090565b610ce28062000cff83390190565b5b80821115620006375760008160009055506001016200061d565b5090565b600073ffffffffffffffffffffffffffffffffffffffff82169050919050565b600062000668826200063b565b9050919050565b6200067a816200065b565b82525050565b60006020820190506200069760008301846200066f565b92915050565b6000604051905090565b600080fd5b600080fd5b620006bc816200065b565b8114620006c857600080fd5b50565b600081359050620006dc81620006b1565b92915050565b600060208284031215620006fb57620006fa620006a7565b5b60006200070b84828501620006cb565b91505092915050565b60008115159050919050565b6200072b8162000714565b82525050565b600060208201905062000748600083018462000720565b92915050565b60006200075b826200063b565b9050919050565b6200076d816200074e565b82525050565b600081519050919050565b600082825260208201905092915050565b60005b83811015620007af57808201518184015260208101905062000792565b83811115620007bf576000848401525b50505050565b6000601f19601f8301169050919050565b6000620007e38262000773565b620007ef81856200077e565b9350620008018185602086016200078f565b6200080c81620007c5565b840191505092915050565b60006060820190506200082e600083018662000762565b8181036020830152620008428185620007d6565b90508181036040830152620008588184620007d6565b9050949350505050565b600080fd5b600080fd5b7f4e487b7100000000000000000000000000000000000000000000000000000000600052604160045260246000fd5b620008a682620007c5565b810181811067ffffffffffffffff82111715620008c857620008c76200086c565b5b80604052505050565b6000620008dd6200069d565b9050620008eb82826200089b565b919050565b600067ffffffffffffffff8211156200090e576200090d6200086c565b5b6200091982620007c5565b9050602081019050919050565b82818337600083830152505050565b60006200094c6200094684620008f0565b620008d1565b9050828152602081018484840111156200096b576200096a62000867565b5b6200097884828562000926565b509392505050565b600082601f83011262000998576200099762000862565b5b8135620009aa84826020860162000935565b91505092915050565b60008060408385031215620009cd57620009cc620006a7565b5b600083013567ffffffffffffffff811115620009ee57620009ed620006ac565b5b620009fc8582860162000980565b925050602083013567ffffffffffffffff81111562000a205762000a1f620006ac565b5b62000a2e8582860162000980565b9150509250929050565b6000819050919050565b62000a4d8162000a38565b811462000a5957600080fd5b50565b60008135905062000a6d8162000a42565b92915050565b600080600080600060a0868803121562000a925762000a91620006a7565b5b600062000aa28882890162000a5c565b955050602086013567ffffffffffffffff81111562000ac65762000ac5620006ac565b5b62000ad48882890162000980565b945050604086013567ffffffffffffffff81111562000af85762000af7620006ac565b5b62000b068882890162000980565b935050606086013567ffffffffffffffff81111562000b2a5762000b29620006ac565b5b62000b388882890162000980565b925050608086013567ffffffffffffffff81111562000b5c5762000b5b620006ac565b5b62000b6a8882890162000980565b9150509295509295909350565b6000819050919050565b600062000ba262000b9c62000b96846200063b565b62000b77565b6200063b565b9050919050565b600062000bb68262000b81565b9050919050565b600062000bca8262000ba9565b9050919050565b62000bdc8162000bbd565b82525050565b600060208201905062000bf9600083018462000bd1565b92915050565b7f4e487b7100000000000000000000000000000000000000000000000000000000600052602260045260246000fd5b6000600282049050600182168062000c4757607f821691505b6020821081141562000c5e5762000c5d62000bff565b5b50919050565b62000c6f8162000a38565b82525050565b600060c08201905062000c8c60008301896200066f565b62000c9b602083018862000c64565b818103604083015262000caf8187620007d6565b9050818103606083015262000cc58186620007d6565b9050818103608083015262000cdb8185620007d6565b905081810360a083015262000cf18184620007d6565b905097965050505050505056fe60806040523480156200001157600080fd5b5060405162000ce238038062000ce283398181016040528101906200003791906200047f565b856000806101000a81548173ffffffffffffffffffffffffffffffffffffffff021916908373ffffffffffffffffffffffffffffffffffffffff1602179055508460026000018190555083600260010190805190602001906200009c92919062000192565b5082600280019080519060200190620000b792919062000192565b508160026004019080519060200190620000d392919062000192565b508060026004019080519060200190620000ef92919062000192565b506000600260050160006101000a81548160ff0219169083151502179055506000600260050160026101000a81548160ff0219169083151502179055506000600260050160026101000a81548160ff0219169083151502179055506000600260050160036101000a81548160ff0219169083151502179055506000600260050160056101000a81548160ff021916908315150217905550505050505050620005fc565b828054620001a090620005c6565b90600052602060002090601f016020900481019282620001c4576000855562000210565b82601f10620001df57805160ff191683800117855562000210565b8280016001018555821562000210579182015b828111156200020f578251825591602001919060010190620001f2565b5b5090506200021f919062000223565b5090565b5b808211156200023e57600081600090555060010162000224565b5090565b6000604051905090565b600080fd5b600080fd5b600073ffffffffffffffffffffffffffffffffffffffff82169050919050565b6000620002838262000256565b9050919050565b620002958162000276565b8114620002a157600080fd5b50565b600081519050620002b5816200028a565b92915050565b6000819050919050565b620002d081620002bb565b8114620002dc57600080fd5b50565b600081519050620002f081620002c5565b92915050565b600080fd5b600080fd5b6000601f19601f8301169050919050565b7f4e487b7100000000000000000000000000000000000000000000000000000000600052604160045260246000fd5b6200034b8262000300565b810181811067ffffffffffffffff821117156200036d576200036c62000311565b5b80604052505050565b60006200038262000242565b905062000390828262000340565b919050565b600067ffffffffffffffff821115620003b357620003b262000311565b5b620003be8262000300565b9050602081019050919050565b60005b83811015620003eb578082015181840152602081019050620003ce565b83811115620003fb576000848401525b50505050565b600062000418620004128462000395565b62000376565b905082815260208101848484011115620004375762000436620002fb565b5b62000444848285620003cb565b509392505050565b600082601f830112620004645762000463620002f6565b5b81516200047684826020860162000401565b91505092915050565b60008060008060008060c087890312156200049f576200049e6200024c565b5b6000620004af89828a01620002a4565b9650506020620004c289828a01620002df565b955050604087015167ffffffffffffffff811115620004e657620004e562000251565b5b620004f489828a016200044c565b945050606087015167ffffffffffffffff81111562000518576200051762000251565b5b6200052689828a016200044c565b935050608087015167ffffffffffffffff8111156200054a576200054962000251565b5b6200055889828a016200044c565b92505060a087015167ffffffffffffffff8111156200057c576200057b62000251565b5b6200058a89828a016200044c565b9150509295509295509295565b7f4e487b7100000000000000000000000000000000000000000000000000000000600052602260045260246000fd5b60006002820490506001821680620005df57607f821691505b60208210811415620005f657620005f562000597565b5b50919050565b6106d6806200060c6000396000f3fe6080604052600436106100865760003560e01c8063c11ae86f11610059578063c11ae86f146100ee578063c8a1534814610119578063df3c435f14610130578063ec29ed1214610147578063ecb0b8621461015e57610086565b80631105f9c41461008b5780632e9fec3f146100a25780636ecc5d62146100b9578063ba2b3906146100e4575b600080fd5b34801561009757600080fd5b506100a0610168565b005b3480156100ae57600080fd5b506100b7610204565b005b3480156100c557600080fd5b506100ce61027c565b6040516100db91906105dc565b60405180910390f35b6100ec6102a2565b005b3480156100fa57600080fd5b50610103610376565b6040516101109190610618565b60405180910390f35b34801561012557600080fd5b5061012e61039a565b005b34801561013c57600080fd5b50610145610414565b005b34801561015357600080fd5b5061015c6104a8565b005b610166610522565b005b60008054906101000a900473ffffffffffffffffffffffffffffffffffffffff1673ffffffffffffffffffffffffffffffffffffffff163373ffffffffffffffffffffffffffffffffffffffff1614156101c157600080fd5b33600160006101000a81548173ffffffffffffffffffffffffffffffffffffffff021916908373ffffffffffffffffffffffffffffffffffffffff160217905550565b60008054906101000a900473ffffffffffffffffffffffffffffffffffffffff1673ffffffffffffffffffffffffffffffffffffffff163373ffffffffffffffffffffffffffffffffffffffff161461025c57600080fd5b6001600260050160016101000a81548160ff021916908315150217905550565b600160009054906101000a900473ffffffffffffffffffffffffffffffffffffffff1681565b60008054906101000a900473ffffffffffffffffffffffffffffffffffffffff1673ffffffffffffffffffffffffffffffffffffffff163373ffffffffffffffffffffffffffffffffffffffff16146102fa57600080fd5b600260000154341461030b57600080fd5b600160009054906101000a900473ffffffffffffffffffffffffffffffffffffffff1673ffffffffffffffffffffffffffffffffffffffff166108fc479081150290604051600060405180830381858888f19350505050158015610373573d6000803e3d6000fd5b50565b60008054906101000a900473ffffffffffffffffffffffffffffffffffffffff1681565b600160009054906101000a900473ffffffffffffffffffffffffffffffffffffffff1673ffffffffffffffffffffffffffffffffffffffff163373ffffffffffffffffffffffffffffffffffffffff16146103f457600080fd5b6001600260050160046101000a81548160ff021916908315150217905550565b60008054906101000a900473ffffffffffffffffffffffffffffffffffffffff1673ffffffffffffffffffffffffffffffffffffffff163373ffffffffffffffffffffffffffffffffffffffff161461046c57600080fd5b600260050160059054906101000a900460ff1661048857600080fd5b6001600260050160036101000a81548160ff021916908315150217905550565b600160009054906101000a900473ffffffffffffffffffffffffffffffffffffffff1673ffffffffffffffffffffffffffffffffffffffff163373ffffffffffffffffffffffffffffffffffffffff161461050257600080fd5b6001600260050160026101000a81548160ff021916908315150217905550565b60008054906101000a900473ffffffffffffffffffffffffffffffffffffffff1673ffffffffffffffffffffffffffffffffffffffff163373ffffffffffffffffffffffffffffffffffffffff161461057a57600080fd5b620f424060026000015461058e919061066c565b341161059957600080fd5b565b600073ffffffffffffffffffffffffffffffffffffffff82169050919050565b60006105c68261059b565b9050919050565b6105d6816105bb565b82525050565b60006020820190506105f160008301846105cd565b92915050565b60006106028261059b565b9050919050565b610612816105f7565b82525050565b600060208201905061062d6000830184610609565b92915050565b6000819050919050565b7f4e487b7100000000000000000000000000000000000000000000000000000000600052601160045260246000fd5b600061067782610633565b915061068283610633565b9250828210156106955761069461063d565b5b82820390509291505056fea26469706673582212209c5556f1c8ee4e43ddd970947cde647b50659d450b264bda6e19972348fdf6a364736f6c63430008090033a2646970667358221220bca6bdfe2b80932fa8d682a179ba240ecf0b6bc286e8ef2fb5cb20d9d6b4a4d064736f6c63430008090033",
  "immutableReferences": {},
  "source": "//SPDX-License-Identifier: MIT\npragma solidity ^0.8.9;\n\n\n\n\n\n\n\ncontract Factory {\n    mapping(address => bool) public activeRides;\n    \n    Ride public newRide;\n    \n    // mapping(string=>driver) public activeDrivers;\n    \n    struct driver {\n        // string hash;\n        address payable driver; \n        string lat;\n        string lon;\n    }\n    \n    driver public activeDriver;\n    address public rideAddress;\n    \n    \n    function createRide(uint _amt, string memory _latDest, string memory _lonDest, string memory _latPick, string memory _lonPick ) public returns (address){\n        newRide = new Ride(msg.sender, _amt, _latDest, _lonDest, _latPick, _lonPick);\n        activeRides[address(newRide)] = true;\n        rideAddress = address(newRide);\n        return address(newRide);\n    }\n\n    function factoryAddress() public view returns (address) {\n        return address(this);\n    }\n    \n    \n    \n    \n    \n    \n    function createDriver(string memory _lat, string memory _lon) public {\n        activeDriver.lat= _lat;\n        activeDriver.lon = _lon;\n        activeDriver.driver = payable(msg.sender);\n    }\n    \n    // function getActiveDrivers() public returns (driver memory){\n    //     return activeDriver;\n    // }\n}\n\n\n\ncontract Ride {\n    \n    address public passenger;\n    address payable public driver;\n    \n    struct RideDetails {\n        uint amount;\n        string latDest;\n        string lonDest;\n        string latPick;\n        string lonPick;\n        bool isApproved;\n        bool arrivalConfirmationPassenger;\n        bool arrivalConfirmationDriver;\n        bool passFinished;\n        bool driverFinished;\n        bool paid;\n    }\n    \n    RideDetails ride;\n    \n    constructor(address _passenger, uint _amt, string memory _latDest, string memory _lonDest, string memory _latPick, string memory _lonPick){\n        passenger = _passenger;\n        ride.amount = _amt;\n        ride.latDest = _latDest;\n        ride.lonDest = _lonDest;\n        ride.lonPick = _latPick;\n        ride.lonPick = _lonPick;\n        ride.isApproved = false;\n        ride.arrivalConfirmationDriver=false;\n        ride.arrivalConfirmationDriver = false;\n        ride.passFinished = false;\n        ride.paid = false;\n        \n        \n    }\n    \n    function approveRide() public {\n        require(msg.sender!= passenger);\n        driver = payable(msg.sender);\n    }\n    \n    function driverArrivedDriver() public {\n        require(msg.sender == driver);\n        ride.arrivalConfirmationDriver = true;\n    }\n    \n    function driverArrivedPassenger() public {\n        require(msg.sender == passenger);\n        ride.arrivalConfirmationPassenger = true;\n    }\n    \n    function payContract() public payable {\n        require(msg.sender == passenger);\n        require(msg.value > ride.amount - 1000000 );\n        \n    }\n    function passFinish() public{\n        require(msg.sender == passenger);\n        require(ride.paid);\n        ride.passFinished = true;\n        \n    }\n    function driverFinish() public{\n        require(msg.sender == driver);\n        ride.driverFinished = true;\n        \n    }\n    \n    function payDriver() public payable {\n        require(msg.sender ==passenger);\n        require(msg.value == ride.amount);\n        driver.transfer(address(this).balance);\n    }\n    \n    \n}\n\n",
  "sourcePath": "/home/rakshith/hackathon/ingenius/maxi-taxi/contracts/Contract.sol",
  "compiler": {
    "name": "solc",
    "version": "0.8.9+commit.e5eed63a.Emscripten.clang"
  },
  "schemaVersion": "3.4.3",
  "updatedAt": "2021-11-13T02:56:11.042Z",
  "networkType": "ethereum",
  "devdoc": {
    "kind": "dev",
    "methods": {},
    "version": 1
  },
  "userdoc": {
    "kind": "user",
    "methods": {},
    "version": 1
  }
}