{
  "contractName": "Ride",
  "abi": [
    {
      "inputs": [
        {
          "internalType": "address",
          "name": "_passenger",
          "type": "address"
        },
        {
          "internalType": "uint256",
          "name": "_amt",
          "type": "uint256"
        },
        {
          "internalType": "string",
          "name": "_latDest",
          "type": "string"
        },
        {
          "internalType": "string",
          "name": "_lonDest",
          "type": "string"
        },
        {
          "internalType": "string",
          "name": "_latPick",
          "type": "string"
        },
        {
          "internalType": "string",
          "name": "_lonPick",
          "type": "string"
        }
      ],
      "stateMutability": "nonpayable",
      "type": "constructor"
    },
    {
      "inputs": [],
      "name": "driver",
      "outputs": [
        {
          "internalType": "address payable",
          "name": "",
          "type": "address"
        }
      ],
      "stateMutability": "view",
      "type": "function"
    },
    {
      "inputs": [],
      "name": "passenger",
      "outputs": [
        {
          "internalType": "address",
          "name": "",
          "type": "address"
        }
      ],
      "stateMutability": "view",
      "type": "function"
    },
    {
      "inputs": [],
      "name": "approveRide",
      "outputs": [],
      "stateMutability": "nonpayable",
      "type": "function"
    },
    {
      "inputs": [],
      "name": "driverArrivedDriver",
      "outputs": [],
      "stateMutability": "nonpayable",
      "type": "function"
    },
    {
      "inputs": [],
      "name": "driverArrivedPassenger",
      "outputs": [],
      "stateMutability": "nonpayable",
      "type": "function"
    },
    {
      "inputs": [],
      "name": "payContract",
      "outputs": [],
      "stateMutability": "payable",
      "type": "function"
    },
    {
      "inputs": [],
      "name": "passFinish",
      "outputs": [],
      "stateMutability": "nonpayable",
      "type": "function"
    },
    {
      "inputs": [],
      "name": "driverFinish",
      "outputs": [],
      "stateMutability": "nonpayable",
      "type": "function"
    },
    {
      "inputs": [],
      "name": "payDriver",
      "outputs": [],
      "stateMutability": "payable",
      "type": "function"
    }
  ],
  "bytecode": "0x60806040523480156200001157600080fd5b5060405162000ce238038062000ce283398181016040528101906200003791906200047f565b856000806101000a81548173ffffffffffffffffffffffffffffffffffffffff021916908373ffffffffffffffffffffffffffffffffffffffff1602179055508460026000018190555083600260010190805190602001906200009c92919062000192565b5082600280019080519060200190620000b792919062000192565b508160026004019080519060200190620000d392919062000192565b508060026004019080519060200190620000ef92919062000192565b506000600260050160006101000a81548160ff0219169083151502179055506000600260050160026101000a81548160ff0219169083151502179055506000600260050160026101000a81548160ff0219169083151502179055506000600260050160036101000a81548160ff0219169083151502179055506000600260050160056101000a81548160ff021916908315150217905550505050505050620005fc565b828054620001a090620005c6565b90600052602060002090601f016020900481019282620001c4576000855562000210565b82601f10620001df57805160ff191683800117855562000210565b8280016001018555821562000210579182015b828111156200020f578251825591602001919060010190620001f2565b5b5090506200021f919062000223565b5090565b5b808211156200023e57600081600090555060010162000224565b5090565b6000604051905090565b600080fd5b600080fd5b600073ffffffffffffffffffffffffffffffffffffffff82169050919050565b6000620002838262000256565b9050919050565b620002958162000276565b8114620002a157600080fd5b50565b600081519050620002b5816200028a565b92915050565b6000819050919050565b620002d081620002bb565b8114620002dc57600080fd5b50565b600081519050620002f081620002c5565b92915050565b600080fd5b600080fd5b6000601f19601f8301169050919050565b7f4e487b7100000000000000000000000000000000000000000000000000000000600052604160045260246000fd5b6200034b8262000300565b810181811067ffffffffffffffff821117156200036d576200036c62000311565b5b80604052505050565b60006200038262000242565b905062000390828262000340565b919050565b600067ffffffffffffffff821115620003b357620003b262000311565b5b620003be8262000300565b9050602081019050919050565b60005b83811015620003eb578082015181840152602081019050620003ce565b83811115620003fb576000848401525b50505050565b600062000418620004128462000395565b62000376565b905082815260208101848484011115620004375762000436620002fb565b5b62000444848285620003cb565b509392505050565b600082601f830112620004645762000463620002f6565b5b81516200047684826020860162000401565b91505092915050565b60008060008060008060c087890312156200049f576200049e6200024c565b5b6000620004af89828a01620002a4565b9650506020620004c289828a01620002df565b955050604087015167ffffffffffffffff811115620004e657620004e562000251565b5b620004f489828a016200044c565b945050606087015167ffffffffffffffff81111562000518576200051762000251565b5b6200052689828a016200044c565b935050608087015167ffffffffffffffff8111156200054a576200054962000251565b5b6200055889828a016200044c565b92505060a087015167ffffffffffffffff8111156200057c576200057b62000251565b5b6200058a89828a016200044c565b9150509295509295509295565b7f4e487b7100000000000000000000000000000000000000000000000000000000600052602260045260246000fd5b60006002820490506001821680620005df57607f821691505b60208210811415620005f657620005f562000597565b5b50919050565b6106d6806200060c6000396000f3fe6080604052600436106100865760003560e01c8063c11ae86f11610059578063c11ae86f146100ee578063c8a1534814610119578063df3c435f14610130578063ec29ed1214610147578063ecb0b8621461015e57610086565b80631105f9c41461008b5780632e9fec3f146100a25780636ecc5d62146100b9578063ba2b3906146100e4575b600080fd5b34801561009757600080fd5b506100a0610168565b005b3480156100ae57600080fd5b506100b7610204565b005b3480156100c557600080fd5b506100ce61027c565b6040516100db91906105dc565b60405180910390f35b6100ec6102a2565b005b3480156100fa57600080fd5b50610103610376565b6040516101109190610618565b60405180910390f35b34801561012557600080fd5b5061012e61039a565b005b34801561013c57600080fd5b50610145610414565b005b34801561015357600080fd5b5061015c6104a8565b005b610166610522565b005b60008054906101000a900473ffffffffffffffffffffffffffffffffffffffff1673ffffffffffffffffffffffffffffffffffffffff163373ffffffffffffffffffffffffffffffffffffffff1614156101c157600080fd5b33600160006101000a81548173ffffffffffffffffffffffffffffffffffffffff021916908373ffffffffffffffffffffffffffffffffffffffff160217905550565b60008054906101000a900473ffffffffffffffffffffffffffffffffffffffff1673ffffffffffffffffffffffffffffffffffffffff163373ffffffffffffffffffffffffffffffffffffffff161461025c57600080fd5b6001600260050160016101000a81548160ff021916908315150217905550565b600160009054906101000a900473ffffffffffffffffffffffffffffffffffffffff1681565b60008054906101000a900473ffffffffffffffffffffffffffffffffffffffff1673ffffffffffffffffffffffffffffffffffffffff163373ffffffffffffffffffffffffffffffffffffffff16146102fa57600080fd5b600260000154341461030b57600080fd5b600160009054906101000a900473ffffffffffffffffffffffffffffffffffffffff1673ffffffffffffffffffffffffffffffffffffffff166108fc479081150290604051600060405180830381858888f19350505050158015610373573d6000803e3d6000fd5b50565b60008054906101000a900473ffffffffffffffffffffffffffffffffffffffff1681565b600160009054906101000a900473ffffffffffffffffffffffffffffffffffffffff1673ffffffffffffffffffffffffffffffffffffffff163373ffffffffffffffffffffffffffffffffffffffff16146103f457600080fd5b6001600260050160046101000a81548160ff021916908315150217905550565b60008054906101000a900473ffffffffffffffffffffffffffffffffffffffff1673ffffffffffffffffffffffffffffffffffffffff163373ffffffffffffffffffffffffffffffffffffffff161461046c57600080fd5b600260050160059054906101000a900460ff1661048857600080fd5b6001600260050160036101000a81548160ff021916908315150217905550565b600160009054906101000a900473ffffffffffffffffffffffffffffffffffffffff1673ffffffffffffffffffffffffffffffffffffffff163373ffffffffffffffffffffffffffffffffffffffff161461050257600080fd5b6001600260050160026101000a81548160ff021916908315150217905550565b60008054906101000a900473ffffffffffffffffffffffffffffffffffffffff1673ffffffffffffffffffffffffffffffffffffffff163373ffffffffffffffffffffffffffffffffffffffff161461057a57600080fd5b620f424060026000015461058e919061066c565b341161059957600080fd5b565b600073ffffffffffffffffffffffffffffffffffffffff82169050919050565b60006105c68261059b565b9050919050565b6105d6816105bb565b82525050565b60006020820190506105f160008301846105cd565b92915050565b60006106028261059b565b9050919050565b610612816105f7565b82525050565b600060208201905061062d6000830184610609565b92915050565b6000819050919050565b7f4e487b7100000000000000000000000000000000000000000000000000000000600052601160045260246000fd5b600061067782610633565b915061068283610633565b9250828210156106955761069461063d565b5b82820390509291505056fea26469706673582212209c5556f1c8ee4e43ddd970947cde647b50659d450b264bda6e19972348fdf6a364736f6c63430008090033",
  "immutableReferences": {},
  "source": "//SPDX-License-Identifier: MIT\npragma solidity ^0.8.9;\n\n\n\n\n\n\n\ncontract Factory {\n    mapping(address => bool) public activeRides;\n    \n    Ride public newRide;\n    \n    // mapping(string=>driver) public activeDrivers;\n    \n    struct driver {\n        // string hash;\n        address payable driver; \n        string lat;\n        string lon;\n    }\n    \n    driver public activeDriver;\n    address public rideAddress;\n    \n    \n    function createRide(uint _amt, string memory _latDest, string memory _lonDest, string memory _latPick, string memory _lonPick ) public returns (address){\n        newRide = new Ride(msg.sender, _amt, _latDest, _lonDest, _latPick, _lonPick);\n        activeRides[address(newRide)] = true;\n        rideAddress = address(newRide);\n        return address(newRide);\n    }\n\n    function factoryAddress() public view returns (address) {\n        return address(this);\n    }\n    \n    \n    \n    \n    \n    \n    function createDriver(string memory _lat, string memory _lon) public {\n        activeDriver.lat= _lat;\n        activeDriver.lon = _lon;\n        activeDriver.driver = payable(msg.sender);\n    }\n    \n    // function getActiveDrivers() public returns (driver memory){\n    //     return activeDriver;\n    // }\n}\n\n\n\ncontract Ride {\n    \n    address public passenger;\n    address payable public driver;\n    \n    struct RideDetails {\n        uint amount;\n        string latDest;\n        string lonDest;\n        string latPick;\n        string lonPick;\n        bool isApproved;\n        bool arrivalConfirmationPassenger;\n        bool arrivalConfirmationDriver;\n        bool passFinished;\n        bool driverFinished;\n        bool paid;\n    }\n    \n    RideDetails ride;\n    \n    constructor(address _passenger, uint _amt, string memory _latDest, string memory _lonDest, string memory _latPick, string memory _lonPick){\n        passenger = _passenger;\n        ride.amount = _amt;\n        ride.latDest = _latDest;\n        ride.lonDest = _lonDest;\n        ride.lonPick = _latPick;\n        ride.lonPick = _lonPick;\n        ride.isApproved = false;\n        ride.arrivalConfirmationDriver=false;\n        ride.arrivalConfirmationDriver = false;\n        ride.passFinished = false;\n        ride.paid = false;\n        \n        \n    }\n    \n    function approveRide() public {\n        require(msg.sender!= passenger);\n        driver = payable(msg.sender);\n    }\n    \n    function driverArrivedDriver() public {\n        require(msg.sender == driver);\n        ride.arrivalConfirmationDriver = true;\n    }\n    \n    function driverArrivedPassenger() public {\n        require(msg.sender == passenger);\n        ride.arrivalConfirmationPassenger = true;\n    }\n    \n    function payContract() public payable {\n        require(msg.sender == passenger);\n        require(msg.value > ride.amount - 1000000 );\n        \n    }\n    function passFinish() public{\n        require(msg.sender == passenger);\n        require(ride.paid);\n        ride.passFinished = true;\n        \n    }\n    function driverFinish() public{\n        require(msg.sender == driver);\n        ride.driverFinished = true;\n        \n    }\n    \n    function payDriver() public payable {\n        require(msg.sender ==passenger);\n        require(msg.value == ride.amount);\n        driver.transfer(address(this).balance);\n    }\n    \n    \n}\n\n",
  "sourcePath": "/home/rakshith/hackathon/ingenius/maxi-taxi/contracts/Contract.sol",
  "compiler": {
    "name": "solc",
    "version": "0.8.9+commit.e5eed63a.Emscripten.clang"
  },
  "schemaVersion": "3.4.3",
  "updatedAt": "2021-11-12T23:54:30.233Z",
  "devdoc": {
    "kind": "dev",
    "methods": {},
    "version": 1
  },
  "userdoc": {
    "kind": "user",
    "methods": {},
    "version": 1
  }
}